S11360008E6F00BD6098CE601ABDE00FBDE006BD86
S11360106067BDE01EBD602E20EC494D2045525303
S113602054454E2046454E535445520A0D00CE6009
S113603062BDE00FCE00DF08BDE006A70081522656
S1136040F6084FA700CE604DBDE00F20091B5B3062
S1136050333B31337200CE605EBDE00F20031B384A
S113606000391B5B366E00CE606FBDE00F20031B52
S11360703700CE607ABDE00F20091B5B31353B321F
S1136080347200CE00DF08A600815226F98648A7A4
S113609000CE00E0BDE00F39CE60A0BDE00F2008C7
S11360A01B5B324A1B5B4800CE611FBDE00FCE6014
S11360B0B6BDE00F20091B5B30323B30314800C6CF
S11360C050862DBDE0095A26FACE60D1BDE00F20DE
S11360D0091B5B31343B30314800C650862DBDE08E
S11360E0095A26FACE60ECBDE00F20091B5B303361
S11360F03B31337200CE60FDBDE00F20091B5B30E5
S1136100333B30314800CC1B5BFD00E0CC3135FD26
S113611000E2CC3B31FD00E4CC5200FD00E6392A1C
S11361202A2A20424554524945425350524F47521D
S1136130414D4D204655455220444945204C494E39
S11361404B414441505445522D4B41525445202A11
S10661502A2A00F4
S9030000FC
