S11100003638484331312D4D4F4E49544F523E
S113E0007EE0337EE1327EE5F87EE6117EE63D7EFB
S113E010E6747EE6577EE64D7EE6C37EE68E7EE6B9
S113E020DE7EE6837EE5E77EE8C87EE9797EE989DF
S113E0307EE9990FFC9F141A834A432605FE9F1616
S113E0406E008E9F78B610398A0BB710398600B7E8
S113E050102C862CB7102D8630B7102BCE9F08FFBE
S113E0609F0909CC6000ED007F9F007F9F28867E7A
S113E070B79F79B79FA9B79FACB79F7CB79F7FB76E
S113E0809F82B79F85B79F88B79F8BB79F8EB79F97
S113E09091B79F94B79F97B79F9AB79F9DB79FA03B
S113E0A0B79FA3B79FA6CEE1B1FF9F7ACEE3E2FF6D
S113E0B09FAACEE19CFF9FADCEE9A6FF9F7DFF9F67
S113E0C080FF9F83FF9F86FF9F89FF9F8CFF9F8F09
S113E0D0FF9F92FF9F95FF9F98FF9F9BFF9F9EFF2F
S113E0E09FA1FF9FA4FF9FA7CEEBAEBDE674CE5FBA
S113E0F0FF08A600436300A1002609630043A100B2
S113E100260220ED09FF9F1B0ECEEBC4BDE674FE74
S113E1109F1B3CCE6000BDE68338FF9F1BCEEBD82F
S113E120BDE674CE9F1BBDE689BDE657CEEBDFBDD1
S113E130E6748E9F780E7F9F28CEEE7DBDE674BD7B
S113E140E63DCEFA535FA1002708085CC10A27E226
S113E15020F458CEFA5D3AEE00AD0020D5B69F28E3
S113E16085012704851226037E9F888608B710231D
S113E170B6102284F7B71022308FC30008FD9F0920
S113E1808E9F780EB69F288502270E850427037E6E
S113E190E22EFE9F09097EE33A7EE132308FC3000E
S113E1A008FD9F098E9F780ECEF0A9BDE6747EE22D
S113E1B034B6102E271E8428F69F28C4D71B36F6A3
S113E1C0102FC103272E472404C114270832B79FF8
S113E1D028F79F253BB69F28854026F18580260495
S113E1E0851226F031308FC30008FD9F09BDE65724
S113E1F0BDE5143B854026D58501260A7EE13232F1
S113E2008A04B79F283B85802608850226F185105D
S113E21026EA308FC30009FD9F098FB69F288580A9
S113E2202708FE9F18B69F1AA7008E9F780E7F9F1F
S113E23028CEF07DBDE674FE9F0909BDE6897EE126
S113E24032CEEE88BDE674BDE6DE2406CEF01A7E3C
S113E250E674FF9F1FCEEBD8BDE674BDE6DE25EC69
S113E260FF9F21FE9F1FBDE6578FC4F08F3CBDE684
S113E27083BDE64B38BC9F1F270908BDE651BDE6A8
S113E2806220F2FE9F1FBDE68BBDE66209BC9F21A2
S113E2902709088FC50F8F26ED2010088FC50F8F13
S113E2A02709BDE65108BDE66220F1BDE64DFC9F9D
S113E2B01FC4F08FBC9F1F2706BDE64D0820F5A69E
S113E2C0004C847F81202202862F4ABDE611BC9F28
S113E2D021270D088FC50F8F26E5FF9F1F7EE2665D
S113E2E0390FB69F288A10B79F280ECEEED7BDE609
S113E2F07420280FB69F288A02B79F280ECEEEB945
S113E3002003CEEEA1BDE674BDE6DE241AC10D26BF
S113E31010B69F2885022603BDE657FE9F090920F3
S113E32019CEF01A7EE674FE9F0909FC9F1BED00CE
S113E330A3002706CEF02E7EE6748F8300078FB6E7
S113E3409F28851226037EE3D7BDE657BDE94481A5
S113E3503F26037EE40E3C36B69F288502322757BB
S113E360CEFA4FA100270CA1012708A1022704A17E
S113E370032644CEEF7ABDE674BDE63D36B69F284B
S113E38085043227037EE22E814E262BFE9F090947
S113E390EE003AFF9F18A600B79F1A863FA700A178
S113E3A0002708CEEF97BDE00F200C0FB69F288AF8
S113E3B080B79F283820200FB69F28847FB79F28D6
S113E3C038FC100EC30036FD101E8608B71023B6A5
S113E3D010228A08B710220FB69F288A01B79F28F7
S113E3E0353B308FC300088FFF9F098E9F780EB690
S113E3F09F288580271809EE0009BC9F18260FB6B0
S113E4009F1AA7008FFE9F0909ED007EE33ABDE63F
S113E41057CEF05FBDE674FE9F0909EE0009BDE624
S113E420837EE132CEEEE5BDE674BDE657BDE63D42
S113E430815326F9BDE63D8139274A813126EE7F95
S113E4409F26BDE6C32405CEF01A20368002B79F6E
S113E45027BDE6DE25F1BDE6C325EC7A9F27271A02
S113E460A700A10027113CCEEFB8BDE674CEEFDFC4
S113E470BDE674387EE6830820DC7C9F2627ABCE7D
S113E480F003BDE67439CEEEFEBDE674BDE6F1BD23
S113E490E6DE2409C152274CC154274839FF9F2185
S113E4A0CEE7C52060BDE6C3253AF69F28C50427FC
S113E4B016BDE6E2252EFC9F218FED00A10026105B
S113E4C008E100260B2011FE9F21A700A1002708C8
S113E4D0CEEFBABDE674200708FF9F21BDE6F1CE5A
S113E4E0E7C52021CEFA71175FA1002711085CC18E
S113E4F00B26F6CEF01ABDE674CEE7C5200758CE3B
S113E500FA7C3AEE00AD00249C20D9313139CEEFAB
S113E5101DBDE674CEFA9BBDE674FC9F098300081A
S113E5208FE600083CCEFA92A600270B0858250275
S113E530862EBDE61120F1BDE64DCEFA9EFF9F1F4B
S113E54038BDE8A43A3CFE9F1F096D00260A38FE38
S113E5509F09093CFE9F1F09086D00382AE339CE44
S113E560EF54BDE674BDE6DE2553FF9F1DCEEBD808
S113E570BDE674BDE6DE2545FF9F1FBC9F1D220935
S113E580FC9F1DFF9F1DFD9F1FCEEFDFBDE674BDE9
S113E590E6DE2529FF9F21BC9F1D2222FE9F1DA68A
S113E5A0003CFE9F21A700A100270531317EE466CF
S113E5B008FF9F2138BC9F1F27030820E239FC9FD6
S113E5C01FB39F1DF39F21FD9F21FE9F1FA6003CAB
S113E5D0FE9F21A700A10026D209FF9F2138BC9FDE
S113E5E01D27030920E739BDE999B69F2837F6109E
S113E5F02EC4801B84A83339BDE9998DEA48482A82
S113E600F70FB69F2884D7B79F28B69F250E847F1F
S113E61039BDE99936B6102E848027F98DC948484A
S113E6202A128DD48113260C8DBD48482AFA8DC830
S113E630811126F43236847FB7102F32398DB98197
S113E6406125CE817A22CA845F20C68D008620206F
S113E650C08D00862D20BA36860D8DB5860A8DB103
S113E660323937363C8FC40FC10826028DDF8DDD69
S113E67038323339A600270A818027DB8D93084D71
S113E6802AF239FF9F1BCE9F1B8D00A60008368DF2
S113E69009BDE611328D077EE61144444444840FDB
S113E6A08B30813923028B0739BDE63D1681302D2D
S113E6B01081392F0A81412D0881462E0480070CD0
S113E6C0390D398DE4251648484848368DDB250C2C
S113E6D0840F331B36BB9F26B79F260C32398DE33C
S113E6E0250EB79F1B8DDC2507B79F1CFE9F1B0CB7
S113E6F0390FB69F2884FBB79F280E390FB69F2881
S113E7008A04B79F280E39CEEF32BDE674BDE9897D
S113E710BDE5F8810326037EE7C5817F260FFE9FB2
S113E7202109FF9F21CEEFB4BDE67420E3BDE611BD
S113E730FE9F21A700A10027083131BDE9797EE4BD
S113E740D008FF9F2120C9CEEEFEBDE674BDE6DEF3
S113E7502505FF9F21206E39FE9F21FF9F23EE0098
S113E760FF9F212060FE9F23FF9F212058BDE6DEEE
S113E7702527098FB39F212A1283FF802505C3FF14
S113E780802010CEEFE5BDE674203A83008024F3A8
S113E790C300803131177EE4C739FE9F21FF9F23D8
S113E7A04FE6002A014AFF9F21F39F21FD9F21FE8E
S113E7B09F210808FF9F21B69F2885042607FE9FF6
S113E7C02109FF9F21BDE657BDE6F1FE9F218C9FE5
S113E7D009260BFF9F1DCEFAAAFF9F1F2036FC9F20
S113E7E009830008FD9F1DFC9F21B39F1D25364D05
S113E7F02633C108222FCEFA9B175FFF9F1FFE9F6F
S113E8001D3AFF9F1DFE9F1F086D002AFB08E600AE
S113E81008102AE7FE9F1DFF9F21BDE8A45A270385
S113E820BDE6FC0C39FE9F21BDE683863DBDE009B3
S113E830FE9F21BDE68BBDE64D0C39CEEF6ABDE6E9
S113E84074BDE63D8153260ECEFAAAFF9F1FCE9FCC
S113E85009FF9F1D203B36FC9F09830008FD9F1D77
S113E860CEFA9BFF9F1F325FFE9F1FA10027220845
S113E8706D002AFB08E600086D002B0CFF9F1FFEAD
S113E8809F1D3AFF9F1D20E0CEF01ABDE6747EE77F
S113E890C5BDE657FE9F1DFF9F218D085A2703BD66
S113E8A0E6FC0C393CFE9F1FBDE674E60008FF9FA2
S113E8B01F385D2605CE9F09C602373CBDE68B5A3C
S113E8C026FABDE64D38333936183C3C18CE0000E4
S113E8D0A6008118273D811A275181CD27563C1661
S113E8E084035454CEF1143AE6004D270554544A97
S113E8F020F8C40338A6008112271581132711813B
S113E9001E270D811F2709183A188F3818383239F5
S113E9105C20F408A60018CEF0C5180818E60027F5
S113E9201C1126F618CE00013C20B408A60018CE0F
S113E930F10620E608A60018CEF10E20DD18CE0060
S113E940005F20C33CBDE514FE9F0909EE00BDE84D
S113E950C8373CBDE64D5D260D38BDE68BCEF0C311
S113E960BDE00F7EE132383337A60036BDE68BBDFD
S113E970E64D5A26F7323338393607360FB69F2814
S113E98084BFB79F28320632393607360FB69F2820
S113E9908A40B79F2832063239368655B7103A86F0
S113E9A0AAB7103A3239CEE9ADBDE6743B0D0A552B
S113E9B04E444546494E49455254455220495251C8
S113E9C0202121200D0A00BDE657BDE657CEF9ED02
S113E9D0BDE674CEFA32BDE6740CBDE6DE251CFF3E
S113E9E09F0DCEFA41BDE6740CBDE6DE2503FF9F04
S113E9F00B860DBDE611860ABDE611FC9F0BB39F85
S113EA000D23D0C614F79F0FFE9F0DBDE683860924
S113EA10BDE611BDEA49FE9F0DBDEA69BDE012BD28
S113EA20E8C8FE9F0D0827AB5A2EFAFF9F0DFC9FE6
S113EA300BB39F0D239D7A9F0F26CDBDE5F8811B57
S113EA4027918614B79F0F20BFFE9F0DBDE8C837DE
S113EA50A600BDE68E085A2EF733C10424058609A4
S113EA60BDE6118609BDE611393C3637FF9F10A675
S113EA7000CEF39E4D270DE60027030820F9084A2F
S113EA80270220F3A600272E81202A2E8101273277
S113EA908102273D81032750810427668105276E63
S113EAA08106270981072708810827073F7EEB484D
S113EAB07EEB6A7EEB8C333238393CBDE611380884
S113EAC020C23C8609BDE6118609BDE6113808203E
S113EAD0B33C8624BDE611FE9F1008FF9F10A600DC
S113EAE0BDE68E38087EEA843C8624BDE611FE9F8E
S113EAF01008A600BDE68E08A600BDE68E38087E86
S113EB00EA843CCEF9E2BDE67438087EEA843C86A9
S113EB1024BDE611FE9F1008A6002B147F9F12B798
S113EB209F13088FF39F128FBDE68338087EEA8413
S113EB30434CB79F137F9F12088FB39F128FBDE67C
S113EB408338087EEA8420BB3CFE9F10083CFF9F6C
S113EB501018384FCEF0C6E60027A84C0818E1007C
S113EB6026F54A38CEF1A77EEA743CFE9F10083C95
S113EB70FF9F1018384FCEF107E60027864C08187F
S113EB80E10026F54A38CEF1747EEA743CFE9F100B
S113EB90083CFF9F1018384FCEF10FE60027A74C12
S113EBA00818E10026F54A38CEF1547EEA740D0ABD
S113EBB00A52414D2074657374206C6165756674E6
S113EBC02E2E2E000D0A52414D2D42657265696349
S113EBD06820766F6E202400206269732024000D63
S113EBE00A0A2020363848433131204D6F6E69744B
S113EBF06F72205620312E312042656665686C7331
S113EC0075656265727369636874095370656963D5
S113EC1068657262656665686C653A0D0A0A09433F
S113EC20202020446174656E206B6F706965726585
S113EC306E0909094D2020206E65756520416472B6
S113EC40657373650D0A0944202020537065696358
S113EC506865726265726569636820616E7A656968
S113EC6067656E09095225202050726F7A657373A7
S113EC706F7252656769737465720D0A09472020C3
S113EC802050726F6772616D6D2073746172746568
S113EC906E090909542020205465787465696E67EB
S113ECA06162650D0A094820202064696573652046
S113ECB048696C667373656974650909093D2020A8
S113ECC020676C6569636865204164726573736568
S113ECD00D0A094C2020204D4F544F524F4C4120D7
S113ECE0532D466F726D6174206C6164656E090901
S113ECF02B20202041647265737365202B20310D15
S113ED000A094D202020537065696368657220618B
S113ED106E7A656967656E2F61656E6465726E09EA
S113ED20092D20202041647265737365202D2031E4
S113ED300D0A095220202052656769737465722098
S113ED40616E7A656967656E09090927202020725A
S113ED50656C6174697620616E7A656967656E0DAC
S113ED600A095320202053696E676C65207374650B
S113ED70702042656E75747A65722D50726F677279
S113ED80616D6D0940202020696E646972656B7441
S113ED9020616E7A656967656E0D0A09542020202A
S113EDA054726163652042656E75747A65722D5084
S113EDB0726F6772616D6D09093C202020616C746B
S113EDC065204164726573736520616E7A65696755
S113EDD0656E0D0A0909090909093E20202072659A
S113EDE06C61746976656E204F6666736574206520
S113EDF072726563686E656E0D0A4354524C2F43FC
S113EE0020416262727563682065696E6573204291
S113EE10656665686C73206F6465722050726F67F5
S113EE2072616D6D730D0A4354524C2F5420416E20
S113EE307A656967656E20646572205265676973D7
S113EE40746572207761656872656E6420646573A9
S113EE502050726F6772616D6D61626C617566736B
S113EE600D0A0A0945202020446973617373656D96
S113EE70626C6572205620302E320D0A000D0A484D
S113EE80432D4D4F4E3E20002053706569636865E5
S113EE907220616E7A656967656E20766F6E2024D4
S113EEA0002050726F6772616D6D207374617274AB
S113EEB0656E2062656920240020547261636520B8
S113EEC042656E75747A65722D50726F6772616DEA
S113EED06D2061622024002053696E676C652053A5
S113EEE07465703A00204D4F544F524F4C4120539B
S113EEF02D466F726D6174206C6164656E002053E1
S113EF0070656963686572626572656963682061CA
S113EF106E7A656967656E206162202400205265FF
S113EF2067697374657220616E7A656967656E3AA4
S113EF302000205465787465696E676162652E20CF
S113EF4028457869742077697468204354524C2F9B
S113EF504329208020446174656E206B6F7069655D
S113EF6072656E20766F6E20240020526567697387
S113EF707465726E616D653F200020547261636533
S113EF8020556E74657270726F6772616D6D2028A2
S113EF90592F4E293F20000D0A4B65696E205241BE
S113EFA04D2D426572656963682E205472616365F4
S113EFB02E2E2E00082008000D0A073F20537065EE
S113EFC06963686572206861742073696368206E80
S113EFD06963687420676561656E64657274002096
S113EFE06162202400073F206572726563686E6564
S113EFF07465204F6666736574207A752067726F36
S113F0007373000D0A073F20507275656673756D42
S113F0106D656E6665686C657200073F2066616C9D
S113F0207363686573205A65696368656E000D0AC9
S113F030073F205350206E6963687420696D205225
S113F040414D2D426572656963682120426566659C
S113F050686C206162676562726F6368656E000D3B
S113F0600A427265616B706F696E742065726B61C0
S113F0706E6E74206265692050433D24000D0A5071
S113F080726F6772616D6D20756E74657262726FF6
S113F0906368656E206D6974204354524C2F43207D
S113F0A06265692050433D24000D0A07496C6C6574
S113F0B067616C206F70636F64656265692050439B
S113F0C03D24003F070008091C1D1E1F3035383A37
S113F0D03C606364666768696A6C6D6E6F8C8F9C54
S113F0E0A0A1A2A3A4A5A6A7A8A9AAABACADAEAFA4
S113F0F0BCCEDEDFE0E1E2E3E4E5E6E7E8E9EAEB03
S113F100ECEDEEEFFEFF008393A3ACB3EEEF00A3B0
S113F110ACEEEF0054555555F55F44FFAAAAAAAAD0
S113F12055555555415115454151154582A22AAAB7
S113F130C3F33FFFEA2AAA7BAAAAAAAAAAAAAAAA4E
S113F140FFFFFFFFEA2AAA73AAAAAAAAAAAAAAAA3E
S113F150FFFFFFFF43504401022C59004350580164
S113F160022C59004C445801022C590053545801A4
S113F170022C59004350440123030043504401022C
S113F1800043504401022C580043505901022C58AA
S113F190004350440103004C445901022C580053CD
S113F1A0545901022C5800494E5900444559004213
S113F1B053455401022C592C020042434C52010283
S113F1C02C592C0200425253455401022C592C0252
S113F1D02C02004252434C5201022C592C022C02A4
S113F1E000545359005459530050554C590041424E
S113F1F0590050534859004E454701022C590043C9
S113F2004F4D01022C59004C535201022C5900520B
S113F2104F5201022C590041535201022C59004112
S113F220534C01022C5900524F4C01022C590044FA
S113F230454301022C5900494E4301022C59005404
S113F240535401022C59004A4D5001022C590043D9
S113F2504C5201022C5900435059012303005847D2
S113F2604459004350590102005355424101022CB4
S113F2705900434D504101022C590053424341016E
S113F280022C59005355424401022C5900414E446A
S113F2904101022C59004249544101022C59004CAD
S113F2A044414101022C59005354414101022C595B
S113F2B000454F524101022C59004144434101028F
S113F2C02C59004F52414101022C59004144444100
S113F2D001022C590043505901022C59004A53523F
S113F2E001022C59004C445301022C59005354532D
S113F2F001022C59004350590103004C4459012385
S113F30003004C445901020053545901020053555F
S113F310424201022C5900434D504201022C590033
S113F3205342434201022C59004144444401022CFB
S113F3305900414E444201022C59004249544201B1
S113F340022C59004C44414201022C5900535441AF
S113F3504201022C5900454F524201022C590041EE
S113F36044434201022C59004F52414201022C599C
S113F370004144444201022C59004C444401022CF3
S113F380590053544401022C590053545901022C7E
S113F39059004C445901030053545901030004001B
S113F3A04E4F5000494449560046444956004C5378
S113F3B052440041534C44005441500054504100C5
S113F3C0494E580044455800434C56005345560096
S113F3D0434C430053454300434C490053454900C3
S113F3E05342410043424100425253455401022CCE
S113F3F0022C05004252434C5201022C022C0500FF
S113F4004253455401022C020042434C5201022C47
S113F410020054414200544241000600444141006C
S113F4200700414241004253455401022C582C022A
S113F4300042434C5201022C582C020042525345C4
S113F4405401022C582C022C02004252434C52010B
S113F450022C582C022C0200425241010500425257
S113F4604E010500424849010500424C5301050084
S113F470424343010500424353010500424E450106
S113F480050042455101050042564301050042561C
S113F4905301050042504C010500424D490105004D
S113F4A0424745010500424C5401050042475401BE
S113F4B00500424C4501050054535800494E530081
S113F4C050554C410050554C42004445530054584B
S113F4D053005053484100505348420050554C5833
S113F4E0005254530041425800525449005053486A
S113F4F058004D554C0057414900535749004E455B
S113F50047410004000400434F4D41004C53524115
S113F510000400524F524100415352410041534CA8
S113F5204100524F4C410044454341000400494EC0
S113F53043410054535441000400434C5241004E93
S113F5404547420004000400434F4D42004C5352CF
S113F55042000400524F5242004153524200415370
S113F5604C4200524F4C420044454342000400497F
S113F5704E43420054535442000400434C52420050
S113F5804E454701022C580004000400434F4D012E
S113F590022C58004C535201022C58000400524FC4
S113F5A05201022C580041535201022C580041537D
S113F5B04C01022C5800524F4C01022C5800444577
S113F5C04301022C58000400494E4301022C580008
S113F5D054535401022C58004A4D5001022C580037
S113F5E0434C5201022C58004E45470103000400CD
S113F5F00400434F4D0103004C5352010300040027
S113F600524F5201030041535201030041534C0134
S113F6100300524F4C01030044454301030004001E
S113F620494E430103005453540103004A4D500111
S113F6300300434C5201030053554241012302008D
S113F640434D504101230200534243410123020030
S113F6505355424401230300414E44410123020017
S113F66042495441012302004C4441410123020018
S113F6700400454F52410123020041444341012308
S113F68002004F52414101230200414444410123FD
S113F6900200435058012303004253520105004C19
S113F6A04453012303005847445800535542410131
S113F6B00200434D50410102005342434101020004
S113F6C053554244010200414E4441010200424963
S113F6D054410102004C4441410102005354414150
S113F6E0010200454F5241010200414443410102DD
S113F6F0004F524141010200414444410102004390
S113F70050580102004A53520102004C4453010272
S113F710005354530102005355424101022C580036
S113F720434D504101022C58005342434101022CE5
S113F73058005355424401022C5800414E444101A3
S113F740022C58004249544101022C58004C4441B7
S113F7504101022C58005354414101022C580045E8
S113F7604F524101022C58004144434101022C589C
S113F770004F52414101022C5800414444410102CE
S113F7802C580043505801022C58004A535201028D
S113F7902C58004C445301022C580053545301027A
S113F7A02C580053554241010300434D504101037D
S113F7B000534243410103005355424401030041B5
S113F7C04E4441010300424954410103004C444169
S113F7D04101030053544141010300454F5241018B
S113F7E00300414443410103004F524141010300DE
S113F7F0414444410103004350580103004A535219
S113F8000103004C445301030053545301030053B8
S113F81055424201230200434D504201230200534A
S113F8204243420123020041444444012303004172
S113F8304E44420123020042495442012302004C37
S113F840444142012302000400454F524201230275
S113F8500041444342012302004F5241420123022A
S113F8600041444442012302004C44440123030068
S113F87008004C44580123030053544F500053557F
S113F8804242010200434D504201020053424342AE
S113F89001020041444444010200414E4442010239
S113F8A000424954420102004C44414201020053C7
S113F8B0544142010200454F524201020041444377
S113F8C0420102004F5241420102004144444201BC
S113F8D002004C44440102005354440102004C44CD
S113F8E05801020053545801020053554242010288
S113F8F02C5800434D504201022C580053424342BD
S113F90001022C58004144444401022C5800414E49
S113F910444201022C58004249544201022C58002E
S113F9204C44414201022C58005354414201022CE0
S113F9305800454F524201022C58004144434201B1
S113F940022C58004F52414201022C5800414444B9
S113F9504201022C58004C444401022C58005354D8
S113F9604401022C58004C445801022C58005354B2
S113F9705801022C580053554242010300434D5094
S113F9804201030053424342010300414444440101
S113F9900300414E44420103004249544201030022
S113F9A04C44414201030053544142010300454F7A
S113F9B05242010300414443420103004F52414279
S113F9C0010300414444420103004C444401030048
S113F9D05354440103004C44580103005354580148
S113F9E003002A2A2A2A2A00202020200009204D48
S113F9F0432036384843313120204469736173739E
S113FA00656D626C6572095620302E32200D0A092C
S113FA1020436F70797269676874206279204A6F35
S113FA2065726720436C61617373656E200D0A0D06
S113FA300A005374617274616472657373653A2069
S113FA400009456E64616472657373653A20008DC4
S113FA509DADBD434447484C4D52535445E55FE288
S113FA6041E302E12CE424E486E50EE2E1E2F3E979
S113FA70C70D4D52542B2D3D27403C3EE50BE74727
S113FA80E83BE707E7AFE7BEE7C5E79AE758E7656E
S113FA90E76D535848494E5A56430046BD0142BD8E
S113FAA00141BD0158BD0259BD025350BD00504330
S106FAB0BD02FF91
S113FFD69F799F7C9F7F9F829F85E15D9F8B9F8EEC
S113FFE69F919F949F979F9A9F9D9FA09FA39FA633
S10DFFF69FA99FACE000E000E000CA
S9030000FC
