S11360008E7000CE6100FF9F89860097FF97FE97F0
S1136010FDCE619BBDE00FCE61A5BDE00FFC100E6F
S1136020C36000FD101EB610228A08B710220ECEDF
S113603061AEBDE00FBDE012CE004F862DBDE0097C
S11360400926F8BDE012BDE012CE61B6BDE00FBD79
S1136050E01897FDBDE012BDE012CE61BFBDE00FB8
S1136060BDE01897FEBDE012BDE012CE61C8BDE0F0
S10A60700FBDE01897FF3F8C
S11361008608B71023FC100EC36000FD101E96FC19
S113611027044A97FC3B861BBDE0098637BDE0098E
S1136120CE618CBDE00FCE6196BDE00FC659D1FFA4
S1136130263E860097FFD1FE263F860097FEC623A3
S1136140D1FD263E860097FD96FDBDE01B863ABD37
S1136150E00996FEBDE01B863ABDE00996FFBDE06E
S11361601B866397FC861BBDE0098638BDE0093BAE
S113617096FF8B011997FF20CF96FE8B011997FE8E
S113618020C696FD8B011997FD20BD581B5B30314D
S11361903B33334800581B233600581B5B30333BDA
S11361A032347200581B5B30323B303148001B5B89
S11361B0324A1B5B48005374756E64653A20004D87
S11361C0696E7574653A200053656B756E64653A43
S10561D02000A9
S9030000FC
