S11360008E70008601B760D0B760CECE6013BDE05D
S11360100F20081B5B324A1B5B4800BDE006811B56
S113602027037E60ADBDE006815B26EFBDE00681FF
S113603041270F814227258143273D814427547EF0
S1136040601BB660CE27D44AB760CEF660D0CE606F
S113605057BDE00F7E601B1B5B314100B660CE81F3
S11360601827B84CB760CEF660D0CE6073BDE00F91
S11360707E601B1B5B314200F660D0C150279C5CE4
S1136080F760D0B660CECE608EBDE00F208D1B5B76
S1136090314300F660D027835AF760D0B660CECE85
S11360A060A8BDE00F7E601B1B5B31440081202A89
S11360B0037E601B817B2B037E601BBDE009F660C1
S11160C0D0C15027045CF760D07E601B1B5BD0
S10460CF3B91
S10560D1480081
S9030000FC
